{
  "_format": "hh-sol-artifact-1",
  "contractName": "PancakeSwapper",
  "sourceName": "contracts/swapper.sol",
  "abi": [
    {
      "inputs": [],
      "stateMutability": "nonpayable",
      "type": "constructor"
    },
    {
      "inputs": [
        {
          "internalType": "uint256",
          "name": "deadline",
          "type": "uint256"
        }
      ],
      "name": "addLiquidity",
      "outputs": [],
      "stateMutability": "payable",
      "type": "function"
    },
    {
      "inputs": [],
      "name": "getReserves",
      "outputs": [
        {
          "internalType": "uint112",
          "name": "",
          "type": "uint112"
        },
        {
          "internalType": "uint112",
          "name": "",
          "type": "uint112"
        }
      ],
      "stateMutability": "view",
      "type": "function"
    },
    {
      "inputs": [
        {
          "internalType": "address",
          "name": "_account",
          "type": "address"
        }
      ],
      "name": "getUSDCBalanceOf",
      "outputs": [
        {
          "internalType": "uint256",
          "name": "",
          "type": "uint256"
        }
      ],
      "stateMutability": "view",
      "type": "function"
    },
    {
      "inputs": [
        {
          "internalType": "address",
          "name": "_account",
          "type": "address"
        }
      ],
      "name": "lptBalanceOf",
      "outputs": [
        {
          "internalType": "uint256",
          "name": "",
          "type": "uint256"
        }
      ],
      "stateMutability": "view",
      "type": "function"
    },
    {
      "inputs": [],
      "name": "routerFactory",
      "outputs": [
        {
          "internalType": "address",
          "name": "",
          "type": "address"
        }
      ],
      "stateMutability": "view",
      "type": "function"
    },
    {
      "inputs": [
        {
          "internalType": "address",
          "name": "to",
          "type": "address"
        },
        {
          "internalType": "address",
          "name": "_tokenA",
          "type": "address"
        },
        {
          "internalType": "uint256",
          "name": "amountIn",
          "type": "uint256"
        },
        {
          "internalType": "uint256",
          "name": "amountOutMin",
          "type": "uint256"
        },
        {
          "internalType": "uint256",
          "name": "deadline",
          "type": "uint256"
        }
      ],
      "name": "swapBNBForTokenA",
      "outputs": [],
      "stateMutability": "payable",
      "type": "function"
    },
    {
      "inputs": [],
      "name": "tokenA",
      "outputs": [
        {
          "internalType": "address",
          "name": "",
          "type": "address"
        }
      ],
      "stateMutability": "view",
      "type": "function"
    },
    {
      "inputs": [],
      "name": "uniswapFactory",
      "outputs": [
        {
          "internalType": "address",
          "name": "",
          "type": "address"
        }
      ],
      "stateMutability": "view",
      "type": "function"
    },
    {
      "inputs": [],
      "name": "uniswapRouter02",
      "outputs": [
        {
          "internalType": "address",
          "name": "",
          "type": "address"
        }
      ],
      "stateMutability": "view",
      "type": "function"
    },
    {
      "inputs": [],
      "name": "weth",
      "outputs": [
        {
          "internalType": "address",
          "name": "",
          "type": "address"
        }
      ],
      "stateMutability": "view",
      "type": "function"
    }
  ],
  "bytecode": "0x6080604052600080546001600160a01b031990811673d99d1c33f9fc3444f8101754abc46c52416550d117909155600180548216736725f303b657a9451d8ba641348b6761a6cc7a171790556003805490911673d87ba7a50b2e7e660f678a895e4b72e7cb4ccd9c1790553480156200007757600080fd5b50600054600480546001600160a01b03199081166001600160a01b039384169081178355600154600580549093169416939093179055604080516315ab88c960e31b8152905163ad5c4648928281019260209291908290030181865afa158015620000e6573d6000803e3d6000fd5b505050506040513d601f19601f820116820180604052508101906200010c919062000368565b600280546001600160a01b0319166001600160a01b0392831690811790915560055460035460405163e6a4390560e01b8152600481019390935283166024830152600092169063e6a4390590604401602060405180830381865afa15801562000179573d6000803e3d6000fd5b505050506040513d601f19601f820116820180604052508101906200019f919062000368565b90506001600160a01b038116620001fd5760405162461bcd60e51b815260206004820152601d60248201527f50616972206e6f7420666f756e6420666f722074686520746f6b656e7300000060448201526064015b60405180910390fd5b600680546001600160a01b0319166001600160a01b0383811691909117909155600254600054620002369291821691166000196200025e565b60035460005462000257916001600160a01b0390811691166000196200025e565b50620003ef565b604080516001600160a01b038481166024830152604480830185905283518084039091018152606490920183526020820180516001600160e01b031663095ea7b360e01b1790529151600092839290871691620002bc91906200039a565b6000604051808303816000865af19150503d8060008114620002fb576040519150601f19603f3d011682016040523d82523d6000602084013e62000300565b606091505b50915091508180156200032e5750805115806200032e5750808060200190518101906200032e9190620003cb565b620003615760405162461bcd60e51b8152602060048201526002602482015261534160f01b6044820152606401620001f4565b5050505050565b6000602082840312156200037b57600080fd5b81516001600160a01b03811681146200039357600080fd5b9392505050565b6000825160005b81811015620003bd5760208186018101518583015201620003a1565b506000920191825250919050565b600060208284031215620003de57600080fd5b815180151581146200039357600080fd5b610a6d80620003ff6000396000f3fe6080604052600436106100915760003560e01c80634ba51437116100595780634ba514371461016b57806351c6590a146101805780638bdb2afa146101935780639dc54743146101b3578063fb912246146101d357600080fd5b80630902f1ac146100965780630d45aa31146100d05780630fc63d10146100e5578063396b97891461011d5780633fc8cef31461014b575b600080fd5b3480156100a257600080fd5b506100ab6101f3565b604080516001600160701b039384168152929091166020830152015b60405180910390f35b6100e36100de366004610723565b61027c565b005b3480156100f157600080fd5b50600354610105906001600160a01b031681565b6040516001600160a01b0390911681526020016100c7565b34801561012957600080fd5b5061013d610138366004610774565b610385565b6040519081526020016100c7565b34801561015757600080fd5b50600254610105906001600160a01b031681565b34801561017757600080fd5b506101056103fa565b6100e361018e366004610791565b610478565b34801561019f57600080fd5b50600154610105906001600160a01b031681565b3480156101bf57600080fd5b5061013d6101ce366004610774565b610693565b3480156101df57600080fd5b50600054610105906001600160a01b031681565b600080600080600660009054906101000a90046001600160a01b03166001600160a01b0316630902f1ac6040518163ffffffff1660e01b8152600401606060405180830381865afa15801561024c573d6000803e3d6000fd5b505050506040513d601f19601f8201168201806040525081019061027091906107c6565b50909590945092505050565b604080516002808252606082018352600092602083019080368337505060025482519293506001600160a01b0316918391506000906102bd576102bd61082c565b60200260200101906001600160a01b031690816001600160a01b03168152505084816001815181106102f1576102f161082c565b6001600160a01b03928316602091820292909201015260048054604051637ff36ab560e01b8152921691637ff36ab591879161033591889187918d918a9101610842565b60006040518083038185885af1158015610353573d6000803e3d6000fd5b50505050506040513d6000823e601f3d908101601f1916820160405261037c91908101906108ac565b50505050505050565b6006546040516370a0823160e01b81526001600160a01b03838116600483015260009216906370a0823190602401602060405180830381865afa1580156103d0573d6000803e3d6000fd5b505050506040513d601f19601f820116820180604052508101906103f4919061096a565b92915050565b6000600460009054906101000a90046001600160a01b03166001600160a01b031663c45a01556040518163ffffffff1660e01b8152600401602060405180830381865afa15801561044f573d6000803e3d6000fd5b505050506040513d601f19601f820116820180604052508101906104739190610983565b905090565b600080600660009054906101000a90046001600160a01b03166001600160a01b0316630902f1ac6040518163ffffffff1660e01b8152600401606060405180830381865afa1580156104ce573d6000803e3d6000fd5b505050506040513d601f19601f820116820180604052508101906104f291906107c6565b5090925090503460006001600160701b038085169084166105146002856109a0565b61051e91906109c2565b61052891906109a0565b6003549091506105509030906001600160a01b03166105486002866109a0565b60008961027c565b6004546001600160a01b031663f305d71961056c6002856109a0565b60035460405160e084901b6001600160e01b03191681526001600160a01b03909116600482015260248101859052600060448201526064810186905233608482015260a4810189905260c40160606040518083038185885af11580156105d6573d6000803e3d6000fd5b50505050506040513d601f19601f820116820180604052508101906105fb91906109e7565b505050600061060930610693565b9050801561068b5760035460405163a9059cbb60e01b8152336004820152602481018390526001600160a01b0390911690819063a9059cbb906044016020604051808303816000875af1158015610664573d6000803e3d6000fd5b505050506040513d601f19601f820116820180604052508101906106889190610a15565b50505b505050505050565b6003546040516370a0823160e01b81526001600160a01b038381166004830152600092169081906370a0823190602401602060405180830381865afa1580156106e0573d6000803e3d6000fd5b505050506040513d601f19601f82011682018060405250810190610704919061096a565b9392505050565b6001600160a01b038116811461072057600080fd5b50565b600080600080600060a0868803121561073b57600080fd5b85356107468161070b565b945060208601356107568161070b565b94979496505050506040830135926060810135926080909101359150565b60006020828403121561078657600080fd5b81356107048161070b565b6000602082840312156107a357600080fd5b5035919050565b80516001600160701b03811681146107c157600080fd5b919050565b6000806000606084860312156107db57600080fd5b6107e4846107aa565b92506107f2602085016107aa565b9150604084015163ffffffff8116811461080b57600080fd5b809150509250925092565b634e487b7160e01b600052604160045260246000fd5b634e487b7160e01b600052603260045260246000fd5b600060808201868352602060808185015281875180845260a086019150828901935060005b8181101561088c5784516001600160a01b031683529383019391830191600101610867565b50506001600160a01b039690961660408501525050506060015292915050565b600060208083850312156108bf57600080fd5b825167ffffffffffffffff808211156108d757600080fd5b818501915085601f8301126108eb57600080fd5b8151818111156108fd576108fd610816565b8060051b604051601f19603f8301168101818110858211171561092257610922610816565b60405291825284820192508381018501918883111561094057600080fd5b938501935b8285101561095e57845184529385019392850192610945565b98975050505050505050565b60006020828403121561097c57600080fd5b5051919050565b60006020828403121561099557600080fd5b81516107048161070b565b6000826109bd57634e487b7160e01b600052601260045260246000fd5b500490565b80820281158282048414176103f457634e487b7160e01b600052601160045260246000fd5b6000806000606084860312156109fc57600080fd5b8351925060208401519150604084015190509250925092565b600060208284031215610a2757600080fd5b8151801515811461070457600080fdfea2646970667358221220f360d4b1c60572ef8278bf9f2d8da79566c21ecb09d44e7c53dba6da9663f26d64736f6c63430008140033",
  "linkReferences": {},
  "deployedLinkReferences": {}
}